:020000040000FA
:060000000A128A11FC2F18
:100D8C0083160313081488140800700C83120313C1
:100D9C00031C8813031888170800700C83120313A4
:100DAC00031C0813031808170800700C8312031394
:100DBC00031C881203188816080083160313881264
:100DCC00081388138312031388120813881308005E
:100DDC008312031308080139F200F3017208F000C2
:100DEC007308F100F92E080083120313080C013963
:100DFC00F200F3017208F0007308F100052F0800EF
:100E0C00152F0130F0020030031CF103F102C73042
:100E1C00F200102FF20B0F2F132F142F152F700819
:100E2C007104031D1A2F1B2F072F1C2F0800F6010E
:100E3C00F701D82FD82F0130F6000030F700D82F4B
:100E4C000A128A11E3260A128A110A128A11C6267C
:100E5C000A128A110230F6000030F700D82F0A125D
:100E6C008A11FA260A128A1170037104031D3F2F8E
:100E7C00402FD82F0330F6000030F700D82FD82F92
:100E8C000130F0000030F1000A128A11CB260A1250
:100E9C008A110130F0000030F1000A128A11D326B9
:100EAC000A128A110030F000F1000A128A11DB26B6
:100EBC000A128A110430F6000030F700D82FD03017
:100ECC00F4000730F5000530F6000030F700D82F9D
:100EDC000130F0000030F1000A128A1106270A12C4
:100EEC008A11FF30F4070318F50AFF30F50775086F
:100EFC00803AFF0080307F02031D862F0130740280
:100F0C000318892F8A2FD82F0630F6000030F700EF
:100F1C00D82FD82F0130F0000030F1000A128A11BE
:100F2C00CB260A128A110030F000F1000A128A1145
:100F3C00D3260A128A110130F0000030F1000A1297
:100F4C008A11DB260A128A110730F6000030F700EE
:100F5C00D82F0A128A11EE260A128A117003710414
:100F6C00031DB92FBA2FC22F0030F000F1000A1266
:100F7C008A11CB260A128A110030F000F1000A12F5
:100F8C008A11D3260A128A110030F000F1000A12DD
:100F9C008A11DB260A128A110830F6000030F7009D
:100FAC00D82FD82F7708003A0319DD2FD82F7608C1
:100FBC00003A0319212F013A0319262F033A03197A
:100FCC00352F013A0319462F073A0319652F013AB9
:100FDC0003196E2F033A0319902F013A0319AF2FFF
:100FEC00D82FD82FD82F0A128A11002883010A1261
:040FFC008A111D2F0A
:04400E00D4E0FFFFFC
:00000001FF
