:020000040000FA
:060000000A128A11EE2F26
:100C6E0083160313081488140800700C83120313E0
:100C7E00031C8813031888170800700C83120313C3
:100C8E00031C0813031808170800700C83120313B3
:100C9E00031C88120318881608007008203E840072
:100CAE0083130008831203138600080083160317AC
:100CBE00890183160313860183120313860108002C
:100CCE0083160313881208138813831203138812D2
:100CDE000813881308008312031308080139F20061
:100CEE00F3017208F0007308F1007D2E08008312E4
:100CFE000313080C0139F200F3017208F0007308B7
:100D0E00F100892E08003F3406345B344F346634CC
:100D1E006D347D3407347F346F3477347C3439341A
:100D2E005E34793471347E088A007F0882000A129C
:100D3E008A119A260A128A118000840A04087D06F6
:100D4E0003190034FF0A0319FE0A9E2EBC2E013031
:100D5E00F0020030031CF103F102C730F200B72E8F
:100D6E00F20BB62EBA2EBB2EBC2E70087104031DCC
:100D7E00C12EC22EAE2EC32E0800F801F901B52FDA
:100D8E00B52FF901F90ADD2F0A128A115D260A1212
:100D9E008A110A128A1167260A128A110A128A11F8
:100DAE0037260A128A110230F4007408F900DD2F7A
:100DBE000A128A117E260A128A1170037104031D0B
:100DCE00E92EEA2EDD2F0330F4007408F900DD2F32
:100DDE00DD2F0130F0000030F1000A128A113C269E
:100DEE000A128A110130F0000030F1000A128A1145
:100DFE0044260A128A110030F000F1000A128A11FC
:100E0E004C260A128A110430F4007408F900DD2F02
:100E1E00D030F6000730F7000530F4007408F90002
:100E2E00DD2F0130F0000030F1000A128A11AD26DC
:100E3E000A128A11FF30F6070318F70AFF30F70778
:100E4E007708803AFF0080307F02031D302F01307B
:100E5E0076020318332F342F392F0630F40074081E
:100E6E00F900392F0A128A1172260A128A1170039A
:100E7E007104031D432F442FDD2F0930F400740835
:100E8E00F900DD2FDD2F0130F0000030F1000A12E5
:100E9E008A113C260A128A110030F000F1000A1263
:100EAE008A1144260A128A110130F0000030F10036
:100EBE000A128A114C260A128A110730F40074089D
:100ECE00F900DD2F7808F400F5017408F0007508BC
:100EDE00F1000A128A1154260A128A110130F40006
:100EEE007408F8070A307802031C7E2F7F2F812F9B
:100EFE00F801812F0830F4007408F900DD2F0A1272
:100F0E008A1172260A128A1170037104031D902F22
:100F1E00912FDD2F0930F4007408F900DD2FDD2F3D
:100F2E000030F000F1000A128A113C260A128A11D2
:100F3E000030F000F1000A128A1144260A128A11BA
:100F4E000030F000F1000A128A114C260A128A11A2
:100F5E000230F4007408F900DD2FDD2F7908F4005B
:100F6E00F5017508003A0319BD2FDD2F7408003AFC
:100F7E000319C82E013A0319CB2E033A0319DF2E9B
:100F8E00013A0319F02E073A03190F2F013A0319EC
:100F9E00182F033A03194A2F013A0319692F0F3AF2
:100FAE000319862F013A0319972FDD2F7808F400C5
:100FBE00F5017408F0007508F1000A128A11542622
:100FCE000A128A11B52FB52F0A128A11002883131F
:100FDE003030FD000630FE008A30FF0020308400E5
:100FEE000A128A119E260A128A1183010A128A1186
:020FFE00C42EFF
:04400E00D4E0FFFFFC
:00000001FF
