:020000040000FA
:060000000A128A11FC2F18
:100D8A0083160313081488140800700C83120313C3
:100D9A00031C8813031888170800700C83120313A6
:100DAA00031C0813031808170800700C8312031396
:100DBA00031C881203188816080083160313881266
:100DCA000813881383120313881208138813080060
:100DDA008312031308080139F200F3017208F000C4
:100DEA007308F100F82E080083120313080C013966
:100DFA00F200F3017208F0007308F100042F0800F2
:100E0A00142F0130F0020030031CF103F102C73045
:100E1A00F2000F2FF20B0E2F122F132F142F700820
:100E2A007104031D192F1A2F062F1B2F0800F60114
:100E3A00F701D82FD82F0130F6000030F700D82F4D
:100E4A000A128A11E2260A128A110A128A11C52680
:100E5A000A128A110230F6000030F700D82F0A125F
:100E6A008A11F9260A128A1170037104031D3E2F92
:100E7A003F2FD82F0330F6000030F700D82FD82F95
:100E8A000130F0000030F1000A128A11CA260A1253
:100E9A008A110130F0000030F1000A128A11D226BC
:100EAA000A128A110030F000F1000A128A11DA26B9
:100EBA000A128A110430F6000030F700D82FD03019
:100ECA00F4000730F5000530F6000030F700D82F9F
:100EDA000130F0000030F1000A128A1105270A12C7
:100EEA008A11FF30F4070318F50AFF30F507750871
:100EFA00803AFF0080307F02031D852F0130740283
:100F0A000318882F892FD82F0630F6000030F700F3
:100F1A00D82FD82F0130F0000030F1000A128A11C0
:100F2A00CA260A128A110030F000F1000A128A1148
:100F3A00D2260A128A110130F0000030F1000A129A
:100F4A008A11DA260A128A110A128A11ED260A125F
:100F5A008A1170037104031DB32FB42FD82F0730E1
:100F6A00F6000030F700D82FD82F0030F000F1003B
:100F7A000A128A11CA260A128A110030F000F100F8
:100F8A000A128A11D2260A128A110030F000F100E0
:100F9A000A128A11DA260A128A110830F60000307B
:100FAA00F700D82FD82F7708003A0319DD2FD82F4A
:100FBA007608003A0319202F013A0319252F033A1C
:100FCA000319342F013A0319452F073A0319642FDD
:100FDA00013A03196D2F033A03198F2F013A0319A6
:100FEA00BA2FD82FD82FD82F0A128A110028830196
:060FFA000A128A111C2FEF
:04400E00D4E0FFFFFC
:00000001FF
